{
  "_format": "hh-sol-artifact-1",
  "contractName": "CertificateRegistry",
  "sourceName": "contracts/CertificateRegistry.sol",
  "abi": [
    {
      "inputs": [],
      "stateMutability": "nonpayable",
      "type": "constructor"
    },
    {
      "anonymous": false,
      "inputs": [
        {
          "indexed": true,
          "internalType": "bytes32",
          "name": "certificateId",
          "type": "bytes32"
        },
        {
          "indexed": true,
          "internalType": "address",
          "name": "issuer",
          "type": "address"
        },
        {
          "indexed": false,
          "internalType": "string",
          "name": "documentHash",
          "type": "string"
        }
      ],
      "name": "CertificateIssued",
      "type": "event"
    },
    {
      "anonymous": false,
      "inputs": [
        {
          "indexed": true,
          "internalType": "bytes32",
          "name": "certificateId",
          "type": "bytes32"
        },
        {
          "indexed": true,
          "internalType": "address",
          "name": "revoker",
          "type": "address"
        },
        {
          "indexed": false,
          "internalType": "string",
          "name": "reason",
          "type": "string"
        }
      ],
      "name": "CertificateRevoked",
      "type": "event"
    },
    {
      "anonymous": false,
      "inputs": [
        {
          "indexed": true,
          "internalType": "address",
          "name": "issuer",
          "type": "address"
        },
        {
          "indexed": false,
          "internalType": "bool",
          "name": "isAuthorized",
          "type": "bool"
        }
      ],
      "name": "IssuerStatusChanged",
      "type": "event"
    },
    {
      "anonymous": false,
      "inputs": [
        {
          "indexed": true,
          "internalType": "address",
          "name": "oldOwner",
          "type": "address"
        },
        {
          "indexed": true,
          "internalType": "address",
          "name": "newOwner",
          "type": "address"
        }
      ],
      "name": "OwnerChanged",
      "type": "event"
    },
    {
      "inputs": [
        {
          "internalType": "address",
          "name": "_issuer",
          "type": "address"
        }
      ],
      "name": "addIssuer",
      "outputs": [],
      "stateMutability": "nonpayable",
      "type": "function"
    },
    {
      "inputs": [
        {
          "internalType": "address",
          "name": "",
          "type": "address"
        }
      ],
      "name": "authorizedIssuers",
      "outputs": [
        {
          "internalType": "bool",
          "name": "",
          "type": "bool"
        }
      ],
      "stateMutability": "view",
      "type": "function"
    },
    {
      "inputs": [
        {
          "internalType": "bytes32",
          "name": "",
          "type": "bytes32"
        }
      ],
      "name": "certificates",
      "outputs": [
        {
          "internalType": "string",
          "name": "documentHash",
          "type": "string"
        },
        {
          "internalType": "string",
          "name": "fileUrl",
          "type": "string"
        },
        {
          "internalType": "address",
          "name": "issuer",
          "type": "address"
        },
        {
          "internalType": "bytes",
          "name": "signature",
          "type": "bytes"
        },
        {
          "internalType": "uint256",
          "name": "timestamp",
          "type": "uint256"
        },
        {
          "internalType": "bool",
          "name": "isValid",
          "type": "bool"
        },
        {
          "internalType": "string",
          "name": "revocationReason",
          "type": "string"
        },
        {
          "internalType": "bytes",
          "name": "revocationSignature",
          "type": "bytes"
        }
      ],
      "stateMutability": "view",
      "type": "function"
    },
    {
      "inputs": [
        {
          "internalType": "bytes32",
          "name": "_certificateId",
          "type": "bytes32"
        }
      ],
      "name": "getCertificate",
      "outputs": [
        {
          "components": [
            {
              "internalType": "string",
              "name": "documentHash",
              "type": "string"
            },
            {
              "internalType": "string",
              "name": "fileUrl",
              "type": "string"
            },
            {
              "internalType": "address",
              "name": "issuer",
              "type": "address"
            },
            {
              "internalType": "bytes",
              "name": "signature",
              "type": "bytes"
            },
            {
              "internalType": "uint256",
              "name": "timestamp",
              "type": "uint256"
            },
            {
              "internalType": "bool",
              "name": "isValid",
              "type": "bool"
            },
            {
              "internalType": "string",
              "name": "revocationReason",
              "type": "string"
            },
            {
              "internalType": "bytes",
              "name": "revocationSignature",
              "type": "bytes"
            }
          ],
          "internalType": "struct CertificateRegistry.Certificate",
          "name": "",
          "type": "tuple"
        }
      ],
      "stateMutability": "view",
      "type": "function"
    },
    {
      "inputs": [
        {
          "internalType": "string",
          "name": "_documentHash",
          "type": "string"
        },
        {
          "internalType": "string",
          "name": "_fileUrl",
          "type": "string"
        },
        {
          "internalType": "bytes",
          "name": "_signature",
          "type": "bytes"
        }
      ],
      "name": "issueCertificate",
      "outputs": [
        {
          "internalType": "bytes32",
          "name": "",
          "type": "bytes32"
        }
      ],
      "stateMutability": "nonpayable",
      "type": "function"
    },
    {
      "inputs": [],
      "name": "owner",
      "outputs": [
        {
          "internalType": "address",
          "name": "",
          "type": "address"
        }
      ],
      "stateMutability": "view",
      "type": "function"
    },
    {
      "inputs": [
        {
          "internalType": "address",
          "name": "_issuer",
          "type": "address"
        }
      ],
      "name": "removeIssuer",
      "outputs": [],
      "stateMutability": "nonpayable",
      "type": "function"
    },
    {
      "inputs": [
        {
          "internalType": "bytes32",
          "name": "_certificateId",
          "type": "bytes32"
        },
        {
          "internalType": "string",
          "name": "_reason",
          "type": "string"
        },
        {
          "internalType": "bytes",
          "name": "_signature",
          "type": "bytes"
        }
      ],
      "name": "revokeCertificate",
      "outputs": [],
      "stateMutability": "nonpayable",
      "type": "function"
    },
    {
      "inputs": [
        {
          "internalType": "address",
          "name": "_newOwner",
          "type": "address"
        }
      ],
      "name": "setOwner",
      "outputs": [],
      "stateMutability": "nonpayable",
      "type": "function"
    }
  ],
  "bytecode": "0x608060405234801561001057600080fd5b5033600160006101000a81548173ffffffffffffffffffffffffffffffffffffffff021916908373ffffffffffffffffffffffffffffffffffffffff1602179055506001600260003373ffffffffffffffffffffffffffffffffffffffff1673ffffffffffffffffffffffffffffffffffffffff16815260200190815260200160002060006101000a81548160ff0219169083151502179055506121ac806100b96000396000f3fe608060405234801561001057600080fd5b50600436106100935760003560e01c80638da5cb5b116100665780638da5cb5b14610123578063c1a55dc514610141578063e8958da114610171578063f333fe081461018d578063f731fa0f146101bd57610093565b806313af40351461009857806320694db0146100b457806347bc7093146100d0578063742f0688146100ec575b600080fd5b6100b260048036038101906100ad91906112b2565b6101ed565b005b6100ce60048036038101906100c991906112b2565b6103ac565b005b6100ea60048036038101906100e591906112b2565b6104e6565b005b61010660048036038101906101019190611315565b610620565b60405161011a98979695949392919061146a565b60405180910390f35b61012b61093d565b604051610138919061150b565b60405180910390f35b61015b600480360381019061015691906116fc565b610963565b60405161016891906117b2565b60405180910390f35b61018b600480360381019061018691906117cd565b610c33565b005b6101a760048036038101906101a29190611315565b610e41565b6040516101b491906119e5565b60405180910390f35b6101d760048036038101906101d291906112b2565b6111c3565b6040516101e49190611a07565b60405180910390f35b600160009054906101000a900473ffffffffffffffffffffffffffffffffffffffff1673ffffffffffffffffffffffffffffffffffffffff163373ffffffffffffffffffffffffffffffffffffffff161461027d576040517f08c379a000000000000000000000000000000000000000000000000000000000815260040161027490611a94565b60405180910390fd5b600073ffffffffffffffffffffffffffffffffffffffff168173ffffffffffffffffffffffffffffffffffffffff16036102ec576040517f08c379a00000000000000000000000000000000000000000000000000000000081526004016102e390611b00565b60405180910390fd5b8073ffffffffffffffffffffffffffffffffffffffff16600160009054906101000a900473ffffffffffffffffffffffffffffffffffffffff1673ffffffffffffffffffffffffffffffffffffffff167fb532073b38c83145e3e5135377a08bf9aab55bc0fd7c1179cd4fb995d2a5159c60405160405180910390a380600160006101000a81548173ffffffffffffffffffffffffffffffffffffffff021916908373ffffffffffffffffffffffffffffffffffffffff16021790555050565b600160009054906101000a900473ffffffffffffffffffffffffffffffffffffffff1673ffffffffffffffffffffffffffffffffffffffff163373ffffffffffffffffffffffffffffffffffffffff161461043c576040517f08c379a000000000000000000000000000000000000000000000000000000000815260040161043390611a94565b60405180910390fd5b6001600260008373ffffffffffffffffffffffffffffffffffffffff1673ffffffffffffffffffffffffffffffffffffffff16815260200190815260200160002060006101000a81548160ff0219169083151502179055508073ffffffffffffffffffffffffffffffffffffffff167f97dbc7d4478cea4ca903e42088ac2881b4d2442bcd802fd6c9303959892df25960016040516104db9190611a07565b60405180910390a250565b600160009054906101000a900473ffffffffffffffffffffffffffffffffffffffff1673ffffffffffffffffffffffffffffffffffffffff163373ffffffffffffffffffffffffffffffffffffffff1614610576576040517f08c379a000000000000000000000000000000000000000000000000000000000815260040161056d90611a94565b60405180910390fd5b6000600260008373ffffffffffffffffffffffffffffffffffffffff1673ffffffffffffffffffffffffffffffffffffffff16815260200190815260200160002060006101000a81548160ff0219169083151502179055508073ffffffffffffffffffffffffffffffffffffffff167f97dbc7d4478cea4ca903e42088ac2881b4d2442bcd802fd6c9303959892df25960006040516106159190611a07565b60405180910390a250565b600060205280600052604060002060009150905080600001805461064390611b4f565b80601f016020809104026020016040519081016040528092919081815260200182805461066f90611b4f565b80156106bc5780601f10610691576101008083540402835291602001916106bc565b820191906000526020600020905b81548152906001019060200180831161069f57829003601f168201915b5050505050908060010180546106d190611b4f565b80601f01602080910402602001604051908101604052809291908181526020018280546106fd90611b4f565b801561074a5780601f1061071f5761010080835404028352916020019161074a565b820191906000526020600020905b81548152906001019060200180831161072d57829003601f168201915b5050505050908060020160009054906101000a900473ffffffffffffffffffffffffffffffffffffffff169080600301805461078590611b4f565b80601f01602080910402602001604051908101604052809291908181526020018280546107b190611b4f565b80156107fe5780601f106107d3576101008083540402835291602001916107fe565b820191906000526020600020905b8154815290600101906020018083116107e157829003601f168201915b5050505050908060040154908060050160009054906101000a900460ff169080600601805461082c90611b4f565b80601f016020809104026020016040519081016040528092919081815260200182805461085890611b4f565b80156108a55780601f1061087a576101008083540402835291602001916108a5565b820191906000526020600020905b81548152906001019060200180831161088857829003601f168201915b5050505050908060070180546108ba90611b4f565b80601f01602080910402602001604051908101604052809291908181526020018280546108e690611b4f565b80156109335780601f1061090857610100808354040283529160200191610933565b820191906000526020600020905b81548152906001019060200180831161091657829003601f168201915b5050505050905088565b600160009054906101000a900473ffffffffffffffffffffffffffffffffffffffff1681565b6000600260003373ffffffffffffffffffffffffffffffffffffffff1673ffffffffffffffffffffffffffffffffffffffff16815260200190815260200160002060009054906101000a900460ff166109f1576040517f08c379a00000000000000000000000000000000000000000000000000000000081526004016109e890611bf2565b60405180910390fd5b600084604051602001610a049190611c4e565b60405160208183030381529060405280519060200120905060008060008381526020019081526020016000206004015414610a74576040517f08c379a0000000000000000000000000000000000000000000000000000000008152600401610a6b90611cb1565b60405180910390fd5b6040518061010001604052808681526020018581526020013373ffffffffffffffffffffffffffffffffffffffff168152602001848152602001428152602001600115158152602001604051806020016040528060008152508152602001604051806020016040528060008152508152506000808381526020019081526020016000206000820151816000019081610b0c9190611e7d565b506020820151816001019081610b229190611e7d565b5060408201518160020160006101000a81548173ffffffffffffffffffffffffffffffffffffffff021916908373ffffffffffffffffffffffffffffffffffffffff1602179055506060820151816003019081610b7f9190611faa565b506080820151816004015560a08201518160050160006101000a81548160ff02191690831515021790555060c0820151816006019081610bbf9190611e7d565b5060e0820151816007019081610bd59190611faa565b509050503373ffffffffffffffffffffffffffffffffffffffff16817fe9d1f149bd22b0e56019e79155fb9c09094cc06be78083f19551fea6e46ff6c487604051610c20919061207c565b60405180910390a3809150509392505050565b600260003373ffffffffffffffffffffffffffffffffffffffff1673ffffffffffffffffffffffffffffffffffffffff16815260200190815260200160002060009054906101000a900460ff16610cbf576040517f08c379a0000000000000000000000000000000000000000000000000000000008152600401610cb690611bf2565b60405180910390fd5b60008060008581526020019081526020016000206004015403610d17576040517f08c379a0000000000000000000000000000000000000000000000000000000008152600401610d0e906120ea565b60405180910390fd5b60008084815260200190815260200160002060050160009054906101000a900460ff16610d79576040517f08c379a0000000000000000000000000000000000000000000000000000000008152600401610d7090612156565b60405180910390fd5b600080600085815260200190815260200160002060050160006101000a81548160ff021916908315150217905550816000808581526020019081526020016000206006019081610dc99190611e7d565b50806000808581526020019081526020016000206007019081610dec9190611faa565b503373ffffffffffffffffffffffffffffffffffffffff16837f3224cf2853d6d5ae7308445d2b6a116e69358ed7e25ed585df081187ef3e5e2d84604051610e34919061207c565b60405180910390a3505050565b610e496111e3565b60008083815260200190815260200160002060405180610100016040529081600082018054610e7790611b4f565b80601f0160208091040260200160405190810160405280929190818152602001828054610ea390611b4f565b8015610ef05780601f10610ec557610100808354040283529160200191610ef0565b820191906000526020600020905b815481529060010190602001808311610ed357829003601f168201915b50505050508152602001600182018054610f0990611b4f565b80601f0160208091040260200160405190810160405280929190818152602001828054610f3590611b4f565b8015610f825780601f10610f5757610100808354040283529160200191610f82565b820191906000526020600020905b815481529060010190602001808311610f6557829003601f168201915b505050505081526020016002820160009054906101000a900473ffffffffffffffffffffffffffffffffffffffff1673ffffffffffffffffffffffffffffffffffffffff1673ffffffffffffffffffffffffffffffffffffffff168152602001600382018054610ff190611b4f565b80601f016020809104026020016040519081016040528092919081815260200182805461101d90611b4f565b801561106a5780601f1061103f5761010080835404028352916020019161106a565b820191906000526020600020905b81548152906001019060200180831161104d57829003601f168201915b50505050508152602001600482015481526020016005820160009054906101000a900460ff161515151581526020016006820180546110a890611b4f565b80601f01602080910402602001604051908101604052809291908181526020018280546110d490611b4f565b80156111215780601f106110f657610100808354040283529160200191611121565b820191906000526020600020905b81548152906001019060200180831161110457829003601f168201915b5050505050815260200160078201805461113a90611b4f565b80601f016020809104026020016040519081016040528092919081815260200182805461116690611b4f565b80156111b35780601f10611188576101008083540402835291602001916111b3565b820191906000526020600020905b81548152906001019060200180831161119657829003601f168201915b5050505050815250509050919050565b60026020528060005260406000206000915054906101000a900460ff1681565b6040518061010001604052806060815260200160608152602001600073ffffffffffffffffffffffffffffffffffffffff168152602001606081526020016000815260200160001515815260200160608152602001606081525090565b6000604051905090565b600080fd5b600080fd5b600073ffffffffffffffffffffffffffffffffffffffff82169050919050565b600061127f82611254565b9050919050565b61128f81611274565b811461129a57600080fd5b50565b6000813590506112ac81611286565b92915050565b6000602082840312156112c8576112c761124a565b5b60006112d68482850161129d565b91505092915050565b6000819050919050565b6112f2816112df565b81146112fd57600080fd5b50565b60008135905061130f816112e9565b92915050565b60006020828403121561132b5761132a61124a565b5b600061133984828501611300565b91505092915050565b600081519050919050565b600082825260208201905092915050565b60005b8381101561137c578082015181840152602081019050611361565b60008484015250505050565b6000601f19601f8301169050919050565b60006113a482611342565b6113ae818561134d565b93506113be81856020860161135e565b6113c781611388565b840191505092915050565b6113db81611274565b82525050565b600081519050919050565b600082825260208201905092915050565b6000611408826113e1565b61141281856113ec565b935061142281856020860161135e565b61142b81611388565b840191505092915050565b6000819050919050565b61144981611436565b82525050565b60008115159050919050565b6114648161144f565b82525050565b6000610100820190508181036000830152611485818b611399565b90508181036020830152611499818a611399565b90506114a860408301896113d2565b81810360608301526114ba81886113fd565b90506114c96080830187611440565b6114d660a083018661145b565b81810360c08301526114e88185611399565b905081810360e08301526114fc81846113fd565b90509998505050505050505050565b600060208201905061152060008301846113d2565b92915050565b600080fd5b600080fd5b7f4e487b7100000000000000000000000000000000000000000000000000000000600052604160045260246000fd5b61156882611388565b810181811067ffffffffffffffff8211171561158757611586611530565b5b80604052505050565b600061159a611240565b90506115a6828261155f565b919050565b600067ffffffffffffffff8211156115c6576115c5611530565b5b6115cf82611388565b9050602081019050919050565b82818337600083830152505050565b60006115fe6115f9846115ab565b611590565b90508281526020810184848401111561161a5761161961152b565b5b6116258482856115dc565b509392505050565b600082601f83011261164257611641611526565b5b81356116528482602086016115eb565b91505092915050565b600067ffffffffffffffff82111561167657611675611530565b5b61167f82611388565b9050602081019050919050565b600061169f61169a8461165b565b611590565b9050828152602081018484840111156116bb576116ba61152b565b5b6116c68482856115dc565b509392505050565b600082601f8301126116e3576116e2611526565b5b81356116f384826020860161168c565b91505092915050565b6000806000606084860312156117155761171461124a565b5b600084013567ffffffffffffffff8111156117335761173261124f565b5b61173f8682870161162d565b935050602084013567ffffffffffffffff8111156117605761175f61124f565b5b61176c8682870161162d565b925050604084013567ffffffffffffffff81111561178d5761178c61124f565b5b611799868287016116ce565b9150509250925092565b6117ac816112df565b82525050565b60006020820190506117c760008301846117a3565b92915050565b6000806000606084860312156117e6576117e561124a565b5b60006117f486828701611300565b935050602084013567ffffffffffffffff8111156118155761181461124f565b5b6118218682870161162d565b925050604084013567ffffffffffffffff8111156118425761184161124f565b5b61184e868287016116ce565b9150509250925092565b600082825260208201905092915050565b600061187482611342565b61187e8185611858565b935061188e81856020860161135e565b61189781611388565b840191505092915050565b6118ab81611274565b82525050565b600082825260208201905092915050565b60006118cd826113e1565b6118d781856118b1565b93506118e781856020860161135e565b6118f081611388565b840191505092915050565b61190481611436565b82525050565b6119138161144f565b82525050565b60006101008301600083015184820360008601526119378282611869565b915050602083015184820360208601526119518282611869565b915050604083015161196660408601826118a2565b506060830151848203606086015261197e82826118c2565b915050608083015161199360808601826118fb565b5060a08301516119a660a086018261190a565b5060c083015184820360c08601526119be8282611869565b91505060e083015184820360e08601526119d882826118c2565b9150508091505092915050565b600060208201905081810360008301526119ff8184611919565b905092915050565b6000602082019050611a1c600083018461145b565b92915050565b7f4f6e6c79206f776e65722063616e20706572666f726d2074686973206163746960008201527f6f6e000000000000000000000000000000000000000000000000000000000000602082015250565b6000611a7e60228361134d565b9150611a8982611a22565b604082019050919050565b60006020820190508181036000830152611aad81611a71565b9050919050565b7f496e76616c696420616464726573730000000000000000000000000000000000600082015250565b6000611aea600f8361134d565b9150611af582611ab4565b602082019050919050565b60006020820190508181036000830152611b1981611add565b9050919050565b7f4e487b7100000000000000000000000000000000000000000000000000000000600052602260045260246000fd5b60006002820490506001821680611b6757607f821691505b602082108103611b7a57611b79611b20565b5b50919050565b7f4f6e6c7920617574686f72697a656420697373756572732063616e207065726660008201527f6f726d207468697320616374696f6e0000000000000000000000000000000000602082015250565b6000611bdc602f8361134d565b9150611be782611b80565b604082019050919050565b60006020820190508181036000830152611c0b81611bcf565b9050919050565b600081905092915050565b6000611c2882611342565b611c328185611c12565b9350611c4281856020860161135e565b80840191505092915050565b6000611c5a8284611c1d565b915081905092915050565b7f436572746966696361746520616c726561647920657869737473000000000000600082015250565b6000611c9b601a8361134d565b9150611ca682611c65565b602082019050919050565b60006020820190508181036000830152611cca81611c8e565b9050919050565b60008190508160005260206000209050919050565b60006020601f8301049050919050565b600082821b905092915050565b600060088302611d337fffffffffffffffffffffffffffffffffffffffffffffffffffffffffffffffff82611cf6565b611d3d8683611cf6565b95508019841693508086168417925050509392505050565b6000819050919050565b6000611d7a611d75611d7084611436565b611d55565b611436565b9050919050565b6000819050919050565b611d9483611d5f565b611da8611da082611d81565b848454611d03565b825550505050565b600090565b611dbd611db0565b611dc8818484611d8b565b505050565b5b81811015611dec57611de1600082611db5565b600181019050611dce565b5050565b601f821115611e3157611e0281611cd1565b611e0b84611ce6565b81016020851015611e1a578190505b611e2e611e2685611ce6565b830182611dcd565b50505b505050565b600082821c905092915050565b6000611e5460001984600802611e36565b1980831691505092915050565b6000611e6d8383611e43565b9150826002028217905092915050565b611e8682611342565b67ffffffffffffffff811115611e9f57611e9e611530565b5b611ea98254611b4f565b611eb4828285611df0565b600060209050601f831160018114611ee75760008415611ed5578287015190505b611edf8582611e61565b865550611f47565b601f198416611ef586611cd1565b60005b82811015611f1d57848901518255600182019150602085019450602081019050611ef8565b86831015611f3a5784890151611f36601f891682611e43565b8355505b6001600288020188555050505b505050505050565b60008190508160005260206000209050919050565b601f821115611fa557611f7681611f4f565b611f7f84611ce6565b81016020851015611f8e578190505b611fa2611f9a85611ce6565b830182611dcd565b50505b505050565b611fb3826113e1565b67ffffffffffffffff811115611fcc57611fcb611530565b5b611fd68254611b4f565b611fe1828285611f64565b600060209050601f8311600181146120145760008415612002578287015190505b61200c8582611e61565b865550612074565b601f19841661202286611f4f565b60005b8281101561204a57848901518255600182019150602085019450602081019050612025565b868310156120675784890151612063601f891682611e43565b8355505b6001600288020188555050505b505050505050565b600060208201905081810360008301526120968184611399565b905092915050565b7f436572746966696361746520646f6573206e6f74206578697374000000000000600082015250565b60006120d4601a8361134d565b91506120df8261209e565b602082019050919050565b60006020820190508181036000830152612103816120c7565b9050919050565b7f436572746966696361746520616c7265616479207265766f6b65640000000000600082015250565b6000612140601b8361134d565b915061214b8261210a565b602082019050919050565b6000602082019050818103600083015261216f81612133565b905091905056fea2646970667358221220d68ab89b0987cf83a20b1da3be0a969233f396bab3d5435d3f335c9f8acbb1f964736f6c63430008180033",
  "linkReferences": {},
  "deployedLinkReferences": {}
}